{
    "hex" : "0100000001792903106089ca45b71e2e597e429986c868efe1d1e270a9206912834e45184e010000006b483045022038f69232d2d1a32df013fa9e89688f05cd9bacec4835968ad1679133dac38c33022100bed3d6cf2c12a3fb78e78c541c0423ebaa3453ed099935249376f44b56036c500121034a19526726a15c654bafc8b4610f9e89f251c92fb379c636b32611824bd2e228ffffffff0233ce4900000000001976a9142d04a19f94927262a28fa5ba1d6565f4bb911bc288accd63ec02000000001976a914c892a60121a31cfbf69db0ebac641145c715d9b288ac00000000",
    "txid" : "095ea960628033cacec3af684364fcdba49b2d6280d2bca360899be658385bde",
    "version" : 1,
    "locktime" : 0,
    "vin" : [
        {
            "txid" : "4e18454e83126920a970e2d1e1ef68c88699427e592e1eb745ca896010032979",
            "vout" : 1,
            "scriptSig" : {
                "asm" : "3045022038f69232d2d1a32df013fa9e89688f05cd9bacec4835968ad1679133dac38c33022100bed3d6cf2c12a3fb78e78c541c0423ebaa3453ed099935249376f44b56036c5001 034a19526726a15c654bafc8b4610f9e89f251c92fb379c636b32611824bd2e228",
                "hex" : "483045022038f69232d2d1a32df013fa9e89688f05cd9bacec4835968ad1679133dac38c33022100bed3d6cf2c12a3fb78e78c541c0423ebaa3453ed099935249376f44b56036c500121034a19526726a15c654bafc8b4610f9e89f251c92fb379c636b32611824bd2e228"
            },
            "sequence" : 4294967295
        }
    ],
    "vout" : [
        {
            "value" : 0.04836915,
            "n" : 0,
            "scriptPubKey" : {
                "asm" : "OP_DUP OP_HASH160 2d04a19f94927262a28fa5ba1d6565f4bb911bc2 OP_EQUALVERIFY OP_CHECKSIG",
                "hex" : "76a9142d04a19f94927262a28fa5ba1d6565f4bb911bc288ac",
                "reqSigs" : 1,
                "type" : "pubkeyhash",
                "addresses" : [
                    "1572xRZzYeAKCrTPT458GVnXFsYbmz8uDc"
                ]
            }
        },
        {
            "value" : 0.49046477,
            "n" : 1,
            "scriptPubKey" : {
                "asm" : "OP_DUP OP_HASH160 c892a60121a31cfbf69db0ebac641145c715d9b2 OP_EQUALVERIFY OP_CHECKSIG",
                "hex" : "76a914c892a60121a31cfbf69db0ebac641145c715d9b288ac",
                "reqSigs" : 1,
                "type" : "pubkeyhash",
                "addresses" : [
                    "1KHXpgQLeLgMTZmP5JVss5XX55UUTFunPP"
                ]
            }
        }
    ],
    "blockhash" : "00000000000000016fb327c19234266cedd6cc8d5125550a37eed88c86b6513f",
    "confirmations" : 8143,
    "time" : 1388346844,
    "blocktime" : 1388346844
}
