{
    "hex" : "01000000011e16366a64e407126121cd0eff3a04e1fbdf5243f27fc233faf3f2ae1d6a5dea000000006c49304602210086de34bf3510c63ba0027debe9e655e9aa98e6c541342f093a8da29c7185ffcc022100aeb3d95d6c455dcb5a3b45ba57228b2fc6e10b5f55cf45337c54da3de6259d7901210237dc1b73da1d0f0758c96986ba108fe114980b9ddc9ab54904bca9265de711a8ffffffff0200e1f505000000001976a9141ac2197b566be7f3e032e1b4ab392aea0593694b88acd8471c00000000001976a91425c6228dcc4fb6d05ccae38adaa48fcf6d217d4788ac00000000",
    "txid" : "11fa0461d67d7307e7594a2bfa73ec5fc27a885e19c09e063fc7a2ba084a6e77",
    "version" : 1,
    "locktime" : 0,
    "vin" : [
        {
            "txid" : "ea5d6a1daef2f3fa33c27ff24352dffbe1043aff0ecd21611207e4646a36161e",
            "vout" : 0,
            "scriptSig" : {
                "asm" : "304602210086de34bf3510c63ba0027debe9e655e9aa98e6c541342f093a8da29c7185ffcc022100aeb3d95d6c455dcb5a3b45ba57228b2fc6e10b5f55cf45337c54da3de6259d7901 0237dc1b73da1d0f0758c96986ba108fe114980b9ddc9ab54904bca9265de711a8",
                "hex" : "49304602210086de34bf3510c63ba0027debe9e655e9aa98e6c541342f093a8da29c7185ffcc022100aeb3d95d6c455dcb5a3b45ba57228b2fc6e10b5f55cf45337c54da3de6259d7901210237dc1b73da1d0f0758c96986ba108fe114980b9ddc9ab54904bca9265de711a8"
            },
            "sequence" : 4294967295
        }
    ],
    "vout" : [
        {
            "value" : 1.00000000,
            "n" : 0,
            "scriptPubKey" : {
                "asm" : "OP_DUP OP_HASH160 1ac2197b566be7f3e032e1b4ab392aea0593694b OP_EQUALVERIFY OP_CHECKSIG",
                "hex" : "76a9141ac2197b566be7f3e032e1b4ab392aea0593694b88ac",
                "reqSigs" : 1,
                "type" : "pubkeyhash",
                "addresses" : [
                    "PaNGELmZgzRQCKeEKM6ifgTqNkC4ceiAWw"
                ]
            }
        },
        {
            "value" : 0.01853400,
            "n" : 1,
            "scriptPubKey" : {
                "asm" : "OP_DUP OP_HASH160 25c6228dcc4fb6d05ccae38adaa48fcf6d217d47 OP_EQUALVERIFY OP_CHECKSIG",
                "hex" : "76a91425c6228dcc4fb6d05ccae38adaa48fcf6d217d4788ac",
                "reqSigs" : 1,
                "type" : "pubkeyhash",
                "addresses" : [
                    "PbNWVqcQZrbrSWEi5aVwFpWF2CJkmQgVLX"
                ]
            }
        }
    ],
    "blockhash" : "0000000c6ce207bf03662ffc21ebca08870a8f4ae9d590c8ed0730b488f43ca7",
    "confirmations" : 3443,
    "time" : 1391487700,
    "blocktime" : 1391487700
}
