{
    "hex" : "01000000018d60ebda24ce8111f21a0d6467d02545248df247d47d29dd4895dd65fd6c171c010000008c493046022100eb011b78bbb3ea93e6d31dbbf5e532f88ee2641f8e468708d8b39a66bfd68c910221008f83100532e582373b80a7632fa018f5f3cc62ea919f1eb2394efecf2860d42e01410415b82f8ee0f3cb4ff8f2dcd2c70b59a87afe4434091c3c0e0af6b88c8e7b550cc9817a835924e8660cc7fa3e906425ccf9ffd6db5afd3616471bd366f4dfad46ffffffff0280969800000000001976a91466be94a6c10cdfcbf053ced58743ff8e12fbcfe788ac7fb40101000000001976a914b66f6c61dbec6295ce758e1add1914f65985178a88ac00000000",
    "txid" : "4356e54ecc97fcfcd0e796a1d0fcd14eb0acfd4f5d3c7342b21c6027b0f646a4",
    "version" : 1,
    "locktime" : 0,
    "vin" : [
        {
            "txid" : "1c176cfd65dd9548dd297dd447f28d244525d067640d1af21181ce24daeb608d",
            "vout" : 1,
            "scriptSig" : {
                "asm" : "3046022100eb011b78bbb3ea93e6d31dbbf5e532f88ee2641f8e468708d8b39a66bfd68c910221008f83100532e582373b80a7632fa018f5f3cc62ea919f1eb2394efecf2860d42e01 0415b82f8ee0f3cb4ff8f2dcd2c70b59a87afe4434091c3c0e0af6b88c8e7b550cc9817a835924e8660cc7fa3e906425ccf9ffd6db5afd3616471bd366f4dfad46",
                "hex" : "493046022100eb011b78bbb3ea93e6d31dbbf5e532f88ee2641f8e468708d8b39a66bfd68c910221008f83100532e582373b80a7632fa018f5f3cc62ea919f1eb2394efecf2860d42e01410415b82f8ee0f3cb4ff8f2dcd2c70b59a87afe4434091c3c0e0af6b88c8e7b550cc9817a835924e8660cc7fa3e906425ccf9ffd6db5afd3616471bd366f4dfad46"
            },
            "sequence" : 4294967295
        }
    ],
    "vout" : [
        {
            "value" : 0.10000000,
            "n" : 0,
            "scriptPubKey" : {
                "asm" : "OP_DUP OP_HASH160 66be94a6c10cdfcbf053ced58743ff8e12fbcfe7 OP_EQUALVERIFY OP_CHECKSIG",
                "hex" : "76a91466be94a6c10cdfcbf053ced58743ff8e12fbcfe788ac",
                "reqSigs" : 1,
                "type" : "pubkeyhash",
                "addresses" : [
                    "1ANGELwQwWxMmbdaSWhWLqBEtPTkWb8uDc"
                ]
            }
        },
        {
            "value" : 0.16888959,
            "n" : 1,
            "scriptPubKey" : {
                "asm" : "OP_DUP OP_HASH160 b66f6c61dbec6295ce758e1add1914f65985178a OP_EQUALVERIFY OP_CHECKSIG",
                "hex" : "76a914b66f6c61dbec6295ce758e1add1914f65985178a88ac",
                "reqSigs" : 1,
                "type" : "pubkeyhash",
                "addresses" : [
                    "1HddTkBSaxVnRL2XPpgFMVChj8BSWWC5mN"
                ]
            }
        }
    ],
    "blockhash" : "00000000000000019686b8465818484281e0ad2458bedfaf03d10bbcadc497ce",
    "confirmations" : 4195,
    "time" : 1390254532,
    "blocktime" : 1390254532
}
