{
    "hex" : "01000000013702c24bbd77533bc6d81abb33bdc374569ff251528672b9a4195ded44e67ff3000000004847304402207f58920defd152a99cab6510f9f2804b922378530f257cfd028a49a3af9083ca02201e460188e0feb676bad6c96365bb4882e5ac1e5954a26d5882f4542c70b7c0b201ffffffff10b56d2c06000000001976a914ff1e3a642c0bc0a89498d3862212212ab9ba317388ac15edc10b000000001976a9142b63c499274eb372139608672f7b30f52b70114588ac1fc8bc66000000001976a914f96291c4fcd720e3163d719244698777bbc0520b88ac6af76908000000001976a914e3fe05f806f28a593e8b2f23d147044fc42ad03a88acdc78de09000000001976a914302ee1e713c70d2b39593b9105a08a67ff68616988acfe542a06000000001976a914f2b6bc11981222a580070aff0d33d57088e375e488acf0f2231c000000001976a9140a10269bfb924ccb1de3d528d9df8f83a96170e888ac8fd0d006000000001976a914a2473e38ed42146de5a999b7fce507c85321177188ac0e682206000000001976a91486e73c3c5ef74d52f65a527e9eb805c82463e8f188ac88235c07000000001976a914821dcd4a49576a7eab80620d567381063746fbb188ac6fb38706000000001976a91464cc22dec060f597c502666bd8faca850eef064d88ac574c0206000000001976a9143ba7ccdd919d3b6d09f78eff4faff6b72ba6a3d488ac41d13306000000001976a9145d2bab500dfd8c8923f8222e5a82db09f84325fe88ac9fd62306000000001976a914c899bd3fde308b9894b647c725b0595feced9b0f88ac202a1306000000001976a9148dc652f66eaa1b10da93d2efe933f2dc1a266bae88ace7c31406000000001976a9143df901a056f46ac68c5c752cca7fa6b60a64066688ac00000000",
    "txid" : "53d88ab11d345976ee8d7b3f9c645debda7ad04febbc465b9380e0c4e534a881",
    "version" : 1,
    "locktime" : 0,
    "vin" : [
        {
            "txid" : "f37fe644ed5d19a4b972865251f29f5674c3bd33bb1ad8c63b5377bd4bc20237",
            "vout" : 0,
            "scriptSig" : {
                "asm" : "304402207f58920defd152a99cab6510f9f2804b922378530f257cfd028a49a3af9083ca02201e460188e0feb676bad6c96365bb4882e5ac1e5954a26d5882f4542c70b7c0b201",
                "hex" : "47304402207f58920defd152a99cab6510f9f2804b922378530f257cfd028a49a3af9083ca02201e460188e0feb676bad6c96365bb4882e5ac1e5954a26d5882f4542c70b7c0b201"
            },
            "sequence" : 4294967295
        }
    ],
    "vout" : [
        {
            "value" : 1.03574965,
            "n" : 0,
            "scriptPubKey" : {
                "asm" : "OP_DUP OP_HASH160 ff1e3a642c0bc0a89498d3862212212ab9ba3173 OP_EQUALVERIFY OP_CHECKSIG",
                "hex" : "76a914ff1e3a642c0bc0a89498d3862212212ab9ba317388ac",
                "reqSigs" : 1,
                "type" : "pubkeyhash",
                "addresses" : [
                    "PwBifHNShSF7mxEwAP2hDkM6hqV3AjZQY2"
                ]
            }
        },
        {
            "value" : 1.97258517,
            "n" : 1,
            "scriptPubKey" : {
                "asm" : "OP_DUP OP_HASH160 2b63c499274eb372139608672f7b30f52b701145 OP_EQUALVERIFY OP_CHECKSIG",
                "hex" : "76a9142b63c499274eb372139608672f7b30f52b70114588ac",
                "reqSigs" : 1,
                "type" : "pubkeyhash",
                "addresses" : [
                    "PbtCiL6BLDiuV7jSYzZEV7a8gsNthw5hJn"
                ]
            }
        },
        {
            "value" : 17.23648031,
            "n" : 2,
            "scriptPubKey" : {
                "asm" : "OP_DUP OP_HASH160 f96291c4fcd720e3163d719244698777bbc0520b OP_EQUALVERIFY OP_CHECKSIG",
                "hex" : "76a914f96291c4fcd720e3163d719244698777bbc0520b88ac",
                "reqSigs" : 1,
                "type" : "pubkeyhash",
                "addresses" : [
                    "PvfQUa2kRLKirTFaufseULNYZBZTJbw3QE"
                ]
            }
        },
        {
            "value" : 1.41162346,
            "n" : 3,
            "scriptPubKey" : {
                "asm" : "OP_DUP OP_HASH160 e3fe05f806f28a593e8b2f23d147044fc42ad03a OP_EQUALVERIFY OP_CHECKSIG",
                "hex" : "76a914e3fe05f806f28a593e8b2f23d147044fc42ad03a88ac",
                "reqSigs" : 1,
                "type" : "pubkeyhash",
                "addresses" : [
                    "PtiHqUbcyRGL9TePCztCaH4XjeiyCNQQCa"
                ]
            }
        },
        {
            "value" : 1.65574876,
            "n" : 4,
            "scriptPubKey" : {
                "asm" : "OP_DUP OP_HASH160 302ee1e713c70d2b39593b9105a08a67ff686169 OP_EQUALVERIFY OP_CHECKSIG",
                "hex" : "76a914302ee1e713c70d2b39593b9105a08a67ff68616988ac",
                "reqSigs" : 1,
                "type" : "pubkeyhash",
                "addresses" : [
                    "PcKYjjm7snREedFWWwN3QN3K7Uupr51H24"
                ]
            }
        },
        {
            "value" : 1.03437566,
            "n" : 5,
            "scriptPubKey" : {
                "asm" : "OP_DUP OP_HASH160 f2b6bc11981222a580070aff0d33d57088e375e4 OP_EQUALVERIFY OP_CHECKSIG",
                "hex" : "76a914f2b6bc11981222a580070aff0d33d57088e375e488ac",
                "reqSigs" : 1,
                "type" : "pubkeyhash",
                "addresses" : [
                    "Pv48a8WYZT9eyap8G9DPJ8dA2FRV9knh1z"
                ]
            }
        },
        {
            "value" : 4.72118000,
            "n" : 6,
            "scriptPubKey" : {
                "asm" : "OP_DUP OP_HASH160 0a10269bfb924ccb1de3d528d9df8f83a96170e8 OP_EQUALVERIFY OP_CHECKSIG",
                "hex" : "76a9140a10269bfb924ccb1de3d528d9df8f83a96170e888ac",
                "reqSigs" : 1,
                "type" : "pubkeyhash",
                "addresses" : [
                    "PYqzFBJicDCgyf4qTX4u3j1epd43do9wBh"
                ]
            }
        },
        {
            "value" : 1.14348175,
            "n" : 7,
            "scriptPubKey" : {
                "asm" : "OP_DUP OP_HASH160 a2473e38ed42146de5a999b7fce507c853211771 OP_EQUALVERIFY OP_CHECKSIG",
                "hex" : "76a914a2473e38ed42146de5a999b7fce507c85321177188ac",
                "reqSigs" : 1,
                "type" : "pubkeyhash",
                "addresses" : [
                    "PnipxDHJrzqiR1mPuRub1RxQoMnVLSExKx"
                ]
            }
        },
        {
            "value" : 1.02918158,
            "n" : 8,
            "scriptPubKey" : {
                "asm" : "OP_DUP OP_HASH160 86e73c3c5ef74d52f65a527e9eb805c82463e8f1 OP_EQUALVERIFY OP_CHECKSIG",
                "hex" : "76a91486e73c3c5ef74d52f65a527e9eb805c82463e8f188ac",
                "reqSigs" : 1,
                "type" : "pubkeyhash",
                "addresses" : [
                    "PkE5hJBUKGQWyp9xvcrN5jE4A5uwdfkriA"
                ]
            }
        },
        {
            "value" : 1.23478920,
            "n" : 9,
            "scriptPubKey" : {
                "asm" : "OP_DUP OP_HASH160 821dcd4a49576a7eab80620d567381063746fbb1 OP_EQUALVERIFY OP_CHECKSIG",
                "hex" : "76a914821dcd4a49576a7eab80620d567381063746fbb188ac",
                "reqSigs" : 1,
                "type" : "pubkeyhash",
                "addresses" : [
                    "Pjnmgh9Xbz2n58Rx7GVz1LRjJLLGD8Yk7U"
                ]
            }
        },
        {
            "value" : 1.09556591,
            "n" : 10,
            "scriptPubKey" : {
                "asm" : "OP_DUP OP_HASH160 64cc22dec060f597c502666bd8faca850eef064d OP_EQUALVERIFY OP_CHECKSIG",
                "hex" : "76a91464cc22dec060f597c502666bd8faca850eef064d88ac",
                "reqSigs" : 1,
                "type" : "pubkeyhash",
                "addresses" : [
                    "Ph7kFu13C6xtvqEMQCdwKkT8ukzds9skeL"
                ]
            }
        },
        {
            "value" : 1.00813911,
            "n" : 11,
            "scriptPubKey" : {
                "asm" : "OP_DUP OP_HASH160 3ba7ccdd919d3b6d09f78eff4faff6b72ba6a3d4 OP_EQUALVERIFY OP_CHECKSIG",
                "hex" : "76a9143ba7ccdd919d3b6d09f78eff4faff6b72ba6a3d488ac",
                "reqSigs" : 1,
                "type" : "pubkeyhash",
                "addresses" : [
                    "PdND2NB5NbYvA4aPGfx6KTJvnbay7qTvFU"
                ]
            }
        },
        {
            "value" : 1.04059201,
            "n" : 12,
            "scriptPubKey" : {
                "asm" : "OP_DUP OP_HASH160 5d2bab500dfd8c8923f8222e5a82db09f84325fe OP_EQUALVERIFY OP_CHECKSIG",
                "hex" : "76a9145d2bab500dfd8c8923f8222e5a82db09f84325fe88ac",
                "reqSigs" : 1,
                "type" : "pubkeyhash",
                "addresses" : [
                    "PgRRJ7MtnEFTkNqL4VnTMPMU3TTHmQgXdN"
                ]
            }
        },
        {
            "value" : 1.03011999,
            "n" : 13,
            "scriptPubKey" : {
                "asm" : "OP_DUP OP_HASH160 c899bd3fde308b9894b647c725b0595feced9b0f OP_EQUALVERIFY OP_CHECKSIG",
                "hex" : "76a914c899bd3fde308b9894b647c725b0595feced9b0f88ac",
                "reqSigs" : 1,
                "type" : "pubkeyhash",
                "addresses" : [
                    "PrDTTSPZRZV5xWm3LXLHGSEwbqHH4QST73"
                ]
            }
        },
        {
            "value" : 1.01919264,
            "n" : 14,
            "scriptPubKey" : {
                "asm" : "OP_DUP OP_HASH160 8dc652f66eaa1b10da93d2efe933f2dc1a266bae OP_EQUALVERIFY OP_CHECKSIG",
                "hex" : "76a9148dc652f66eaa1b10da93d2efe933f2dc1a266bae88ac",
                "reqSigs" : 1,
                "type" : "pubkeyhash",
                "addresses" : [
                    "PkrQzvmtSL55GmzJvbVkfPvcXR9D8BY6Tv"
                ]
            }
        },
        {
            "value" : 1.02024167,
            "n" : 15,
            "scriptPubKey" : {
                "asm" : "OP_DUP OP_HASH160 3df901a056f46ac68c5c752cca7fa6b60a640666 OP_EQUALVERIFY OP_CHECKSIG",
                "hex" : "76a9143df901a056f46ac68c5c752cca7fa6b60a64066688ac",
                "reqSigs" : 1,
                "type" : "pubkeyhash",
                "addresses" : [
                    "PdaTf3jyfRM4mrtGogtNpUFQoe49tFNSnM"
                ]
            }
        }
    ],
    "blockhash" : "00001ba7930bb6c17f3e2a763b68d22fb1112eafdb3e1b222cf53eef4248a8b4",
    "confirmations" : 39097,
    "time" : 1384158028,
    "blocktime" : 1384158028
}
