{
    "hex" : "010000000266aec0bd48435716c9dd893eccb5571784daa285ccaf3a0db7180c814c94ebd4010000006a473044022036667de6433fda27f0dfc0784c2b1623f73d3f486bda827cd0c769afede9682b022027e60cbaa6013299acac24ae6abb715a88c82cac6e251de2266123be9a6ed3b301210233fb622954b9d704abc45667e5ce15e43fef3f9a14064e94ccfa47a9d6ae153fffffffffa072b71ba3788ddfe2c92e7037ee0159e2cbc8b45ee451198ec8f64857f53cb6010000006b483045022038e49f3a160cc0421093da5acb24b71236b9c2e8f1fabcceac37827f2d4ff8f5022100cc8c47b60ee89c230e039586886c7943a5d9319882056040e74587dfbd69bd83012103bd5880740e2f14914ce1aa905baad6c700f42bfba6f462bc4ee653fd6bb12c0effffffff0200e1f505000000001976a9141ac2197b566be7f3e032e1b4ab392aea0593694b88ac0ef21c00000000001976a9149ad0bb1a0c303bdee18719479d062290eea1000588ac00000000",
    "txid" : "546ee56df1600bd4f57ddade8ed46e17156b4db76fa85f06d95b73b2b99a7390",
    "version" : 1,
    "locktime" : 0,
    "vin" : [
        {
            "txid" : "d4eb944c810c18b70d3aafcc85a2da841757b5cc3e89ddc916574348bdc0ae66",
            "vout" : 1,
            "scriptSig" : {
                "asm" : "3044022036667de6433fda27f0dfc0784c2b1623f73d3f486bda827cd0c769afede9682b022027e60cbaa6013299acac24ae6abb715a88c82cac6e251de2266123be9a6ed3b301 0233fb622954b9d704abc45667e5ce15e43fef3f9a14064e94ccfa47a9d6ae153f",
                "hex" : "473044022036667de6433fda27f0dfc0784c2b1623f73d3f486bda827cd0c769afede9682b022027e60cbaa6013299acac24ae6abb715a88c82cac6e251de2266123be9a6ed3b301210233fb622954b9d704abc45667e5ce15e43fef3f9a14064e94ccfa47a9d6ae153f"
            },
            "sequence" : 4294967295
        },
        {
            "txid" : "b63cf55748f6c88e1951e45eb4c8cbe25901ee37702ec9e2df8d78a31bb772a0",
            "vout" : 1,
            "scriptSig" : {
                "asm" : "3045022038e49f3a160cc0421093da5acb24b71236b9c2e8f1fabcceac37827f2d4ff8f5022100cc8c47b60ee89c230e039586886c7943a5d9319882056040e74587dfbd69bd8301 03bd5880740e2f14914ce1aa905baad6c700f42bfba6f462bc4ee653fd6bb12c0e",
                "hex" : "483045022038e49f3a160cc0421093da5acb24b71236b9c2e8f1fabcceac37827f2d4ff8f5022100cc8c47b60ee89c230e039586886c7943a5d9319882056040e74587dfbd69bd83012103bd5880740e2f14914ce1aa905baad6c700f42bfba6f462bc4ee653fd6bb12c0e"
            },
            "sequence" : 4294967295
        }
    ],
    "vout" : [
        {
            "value" : 1.00000000,
            "n" : 0,
            "scriptPubKey" : {
                "asm" : "OP_DUP OP_HASH160 1ac2197b566be7f3e032e1b4ab392aea0593694b OP_EQUALVERIFY OP_CHECKSIG",
                "hex" : "76a9141ac2197b566be7f3e032e1b4ab392aea0593694b88ac",
                "reqSigs" : 1,
                "type" : "pubkeyhash",
                "addresses" : [
                    "PaNGELmZgzRQCKeEKM6ifgTqNkC4ceiAWw"
                ]
            }
        },
        {
            "value" : 0.01896974,
            "n" : 1,
            "scriptPubKey" : {
                "asm" : "OP_DUP OP_HASH160 9ad0bb1a0c303bdee18719479d062290eea10005 OP_EQUALVERIFY OP_CHECKSIG",
                "hex" : "76a9149ad0bb1a0c303bdee18719479d062290eea1000588ac",
                "reqSigs" : 1,
                "type" : "pubkeyhash",
                "addresses" : [
                    "Pn3NFVrz2tP4gNqxwQM6Wjyx4g8C3Sgw6q"
                ]
            }
        }
    ],
    "blockhash" : "0000000e0c228881530724d016416ceedd8feaa219a7226c8663aa5270fc3a34",
    "confirmations" : 5006,
    "time" : 1391045942,
    "blocktime" : 1391045942
}