{
    "hex" : "01000000036c7d318b54854fd463b5c6b35039cea53f690f6d9d652c7f2fc5b13f1066cf64010000006a47304402202dcb2526f5d93aeb226893a649f595bfac40e0f366c097c30395cf9c75b120110220418accd7782197c230e9d106d6c367eb85ce51278a694283e2d5f1a9ad35f9010121021ed37a170d2e9d57dbaeb18732a4fa62b4b8ec93d0e5af5da286653226f18985ffffffff65f514767c4ee67563d9e90b010ac54bca2ce0b1ef9627f684f234d58fa6793c010000006a473044022056b9ca996a695de5ddca855624193e62617abedc0470e5178070575b0aaf02f402202b21db7f233e7e31691402b12520dbe87fe9b01a5d3c44035903f02d5ce922e901210347165e2a8d186bd505196b4faf3b231d58ddda288667f5541602029f2dca5750ffffffff04cc8d804977f85e9ea284baf125976e49451df8a037bee418b0059a5a4bed04010000006c493046022100e88db9bd041bda3928facc8eb694b0eb5a1926d71dba7250f49e0cea627c70e0022100acc713fa3c9aa7d6d0b72ce50d1bc7d418a4b289f2f2a8e4a67413d71e1166f00121032a4cacb4049c6e7dd0eab67c0106ad2b0c259e76f440f2d96a06dc07795f26ecffffffff026b6e1a00000000001976a91485581ed7a88c5a949a0ec1cd6fc576a6c317831f88ac002d3101000000001976a91466be94a6c10cdfcbf053ced58743ff8e12fbcfe788ac00000000",
    "txid" : "64cf8b3015bf5796a7dbb19223be05d08048d9032478a6813bcee86df29532f0",
    "version" : 1,
    "locktime" : 0,
    "vin" : [
        {
            "txid" : "64cf66103fb1c52f7f2c659d6d0f693fa5ce3950b3c6b563d44f85548b317d6c",
            "vout" : 1,
            "scriptSig" : {
                "asm" : "304402202dcb2526f5d93aeb226893a649f595bfac40e0f366c097c30395cf9c75b120110220418accd7782197c230e9d106d6c367eb85ce51278a694283e2d5f1a9ad35f90101 021ed37a170d2e9d57dbaeb18732a4fa62b4b8ec93d0e5af5da286653226f18985",
                "hex" : "47304402202dcb2526f5d93aeb226893a649f595bfac40e0f366c097c30395cf9c75b120110220418accd7782197c230e9d106d6c367eb85ce51278a694283e2d5f1a9ad35f9010121021ed37a170d2e9d57dbaeb18732a4fa62b4b8ec93d0e5af5da286653226f18985"
            },
            "sequence" : 4294967295
        },
        {
            "txid" : "3c79a68fd534f284f62796efb1e02cca4bc50a010be9d96375e64e7c7614f565",
            "vout" : 1,
            "scriptSig" : {
                "asm" : "3044022056b9ca996a695de5ddca855624193e62617abedc0470e5178070575b0aaf02f402202b21db7f233e7e31691402b12520dbe87fe9b01a5d3c44035903f02d5ce922e901 0347165e2a8d186bd505196b4faf3b231d58ddda288667f5541602029f2dca5750",
                "hex" : "473044022056b9ca996a695de5ddca855624193e62617abedc0470e5178070575b0aaf02f402202b21db7f233e7e31691402b12520dbe87fe9b01a5d3c44035903f02d5ce922e901210347165e2a8d186bd505196b4faf3b231d58ddda288667f5541602029f2dca5750"
            },
            "sequence" : 4294967295
        },
        {
            "txid" : "04ed4b5a9a05b018e4be37a0f81d45496e9725f1ba84a29e5ef87749808dcc04",
            "vout" : 1,
            "scriptSig" : {
                "asm" : "3046022100e88db9bd041bda3928facc8eb694b0eb5a1926d71dba7250f49e0cea627c70e0022100acc713fa3c9aa7d6d0b72ce50d1bc7d418a4b289f2f2a8e4a67413d71e1166f001 032a4cacb4049c6e7dd0eab67c0106ad2b0c259e76f440f2d96a06dc07795f26ec",
                "hex" : "493046022100e88db9bd041bda3928facc8eb694b0eb5a1926d71dba7250f49e0cea627c70e0022100acc713fa3c9aa7d6d0b72ce50d1bc7d418a4b289f2f2a8e4a67413d71e1166f00121032a4cacb4049c6e7dd0eab67c0106ad2b0c259e76f440f2d96a06dc07795f26ec"
            },
            "sequence" : 4294967295
        }
    ],
    "vout" : [
        {
            "value" : 0.01732203,
            "n" : 0,
            "scriptPubKey" : {
                "asm" : "OP_DUP OP_HASH160 85581ed7a88c5a949a0ec1cd6fc576a6c317831f OP_EQUALVERIFY OP_CHECKSIG",
                "hex" : "76a91485581ed7a88c5a949a0ec1cd6fc576a6c317831f88ac",
                "reqSigs" : 1,
                "type" : "pubkeyhash",
                "addresses" : [
                    "1DA4SES8d7bqZVQimJYzJpCLns3hhoRNPx"
                ]
            }
        },
        {
            "value" : 0.20000000,
            "n" : 1,
            "scriptPubKey" : {
                "asm" : "OP_DUP OP_HASH160 66be94a6c10cdfcbf053ced58743ff8e12fbcfe7 OP_EQUALVERIFY OP_CHECKSIG",
                "hex" : "76a91466be94a6c10cdfcbf053ced58743ff8e12fbcfe788ac",
                "reqSigs" : 1,
                "type" : "pubkeyhash",
                "addresses" : [
                    "1ANGELwQwWxMmbdaSWhWLqBEtPTkWb8uDc"
                ]
            }
        }
    ],
    "blockhash" : "00000000000000024c9b563c5f34515c037e0e6b1aea26732ec30dd997ea5f84",
    "confirmations" : 8657,
    "time" : 1388033442,
    "blocktime" : 1388033442
}
