{
    "hex" : "010000000390739ab9b2735bd9065fa86fb74d6b15176ed48ededa7df5d40b60f16de56e54010000006a47304402207edcd67a583a7266c1a438bcb8ea6f40eba444f7d1798b6073cc48eb78558ec402204ca36730a296ee3786f7514dc742de7471f761db48c3cfe68acf27a7200f02f8012103ad044a685cdb39e82b5a6510e995e4b1e7f986dcee762574c2927f7c261a1fe4ffffffff776e4a08baa2c73f069ec0195e887ac25fec73fa2b4a59e707737dd66104fa11010000006c493046022100a9eb049e7f1b1013d73989929ae8c45792ceebfdc34b030ceb52eda039dcc249022100fef1203cdeed51795f70352d4f5e9b9100ccda1d687a106420da6281f84038890121022a066addfc83e12d9e1bca5cfa1fe2ad92e434bdd623c675a332f0bd5fa4efcaffffffff81a834e5c4e080935b46bceb4fd07adaeb5d649c3f7b8dee7659341db18ad853010000006c493046022100cde165eda5651295571fd3ef7657bf491ecbb0262796fdf839de0821a2baaac60221009b7d531350f7b97b3fbc2a3ee218f1a04f6b3725f3ad386f02d62de768a0058d01210233fb622954b9d704abc45667e5ce15e43fef3f9a14064e94ccfa47a9d6ae153fffffffff02fb640f00000000001976a9141d60c357e9bbdfd35a78a9b516e7ab4bcc846f3188ac00c2eb0b000000001976a9141ac2197b566be7f3e032e1b4ab392aea0593694b88ac00000000",
    "txid" : "a47f12254a196bf7255ff76d83fb8767a8abf2a15bed10172c59316c0d1cea8d",
    "version" : 1,
    "locktime" : 0,
    "vin" : [
        {
            "txid" : "546ee56df1600bd4f57ddade8ed46e17156b4db76fa85f06d95b73b2b99a7390",
            "vout" : 1,
            "scriptSig" : {
                "asm" : "304402207edcd67a583a7266c1a438bcb8ea6f40eba444f7d1798b6073cc48eb78558ec402204ca36730a296ee3786f7514dc742de7471f761db48c3cfe68acf27a7200f02f801 03ad044a685cdb39e82b5a6510e995e4b1e7f986dcee762574c2927f7c261a1fe4",
                "hex" : "47304402207edcd67a583a7266c1a438bcb8ea6f40eba444f7d1798b6073cc48eb78558ec402204ca36730a296ee3786f7514dc742de7471f761db48c3cfe68acf27a7200f02f8012103ad044a685cdb39e82b5a6510e995e4b1e7f986dcee762574c2927f7c261a1fe4"
            },
            "sequence" : 4294967295
        },
        {
            "txid" : "11fa0461d67d7307e7594a2bfa73ec5fc27a885e19c09e063fc7a2ba084a6e77",
            "vout" : 1,
            "scriptSig" : {
                "asm" : "3046022100a9eb049e7f1b1013d73989929ae8c45792ceebfdc34b030ceb52eda039dcc249022100fef1203cdeed51795f70352d4f5e9b9100ccda1d687a106420da6281f840388901 022a066addfc83e12d9e1bca5cfa1fe2ad92e434bdd623c675a332f0bd5fa4efca",
                "hex" : "493046022100a9eb049e7f1b1013d73989929ae8c45792ceebfdc34b030ceb52eda039dcc249022100fef1203cdeed51795f70352d4f5e9b9100ccda1d687a106420da6281f84038890121022a066addfc83e12d9e1bca5cfa1fe2ad92e434bdd623c675a332f0bd5fa4efca"
            },
            "sequence" : 4294967295
        },
        {
            "txid" : "53d88ab11d345976ee8d7b3f9c645debda7ad04febbc465b9380e0c4e534a881",
            "vout" : 1,
            "scriptSig" : {
                "asm" : "3046022100cde165eda5651295571fd3ef7657bf491ecbb0262796fdf839de0821a2baaac60221009b7d531350f7b97b3fbc2a3ee218f1a04f6b3725f3ad386f02d62de768a0058d01 0233fb622954b9d704abc45667e5ce15e43fef3f9a14064e94ccfa47a9d6ae153f",
                "hex" : "493046022100cde165eda5651295571fd3ef7657bf491ecbb0262796fdf839de0821a2baaac60221009b7d531350f7b97b3fbc2a3ee218f1a04f6b3725f3ad386f02d62de768a0058d01210233fb622954b9d704abc45667e5ce15e43fef3f9a14064e94ccfa47a9d6ae153f"
            },
            "sequence" : 4294967295
        }
    ],
    "vout" : [
        {
            "value" : 0.01008891,
            "n" : 0,
            "scriptPubKey" : {
                "asm" : "OP_DUP OP_HASH160 1d60c357e9bbdfd35a78a9b516e7ab4bcc846f31 OP_EQUALVERIFY OP_CHECKSIG",
                "hex" : "76a9141d60c357e9bbdfd35a78a9b516e7ab4bcc846f3188ac",
                "reqSigs" : 1,
                "type" : "pubkeyhash",
                "addresses" : [
                    "Pac7erqaBcnHcAyX6rRBMQFWKjKb4YqYev"
                ]
            }
        },
        {
            "value" : 2.00000000,
            "n" : 1,
            "scriptPubKey" : {
                "asm" : "OP_DUP OP_HASH160 1ac2197b566be7f3e032e1b4ab392aea0593694b OP_EQUALVERIFY OP_CHECKSIG",
                "hex" : "76a9141ac2197b566be7f3e032e1b4ab392aea0593694b88ac",
                "reqSigs" : 1,
                "type" : "pubkeyhash",
                "addresses" : [
                    "PaNGELmZgzRQCKeEKM6ifgTqNkC4ceiAWw"
                ]
            }
        }
    ],
    "blockhash" : "00000012ff61e7d7b66f3a16aa11b93921e79dab76e8acc28ae55f981e42817f",
    "confirmations" : 74,
    "time" : 1392352343,
    "blocktime" : 1392352343
}