{
    "hex" : "01000000014b506e3cdb3a885d5f3a472a573ffca3b356b9e8a3b08c4828657e1ae31b95fe010000006a47304402205e907058f2fd0b38a3e275e082b11cc6b644a3b761f0c1b8d69abbfb792ece5302201f10690ba7c1930d13a85837a265ba9274e5cc989eee667286fa5333a43e5e62012103fc281847a249312fadfa20fd4e3dce543bf90b265e17597687e1c54d1920b967ffffffff02e7a8fa00000000001976a9145672a3afe117c9ddcc1d32ee927c6bd12337891688ac4712e000000000001976a914c892a60121a31cfbf69db0ebac641145c715d9b288ac00000000",
    "txid" : "aa31dfd92b840dfa319665eb2a73e4ba5c138b45725018c4352dfcf47181b571",
    "version" : 1,
    "locktime" : 0,
    "vin" : [
        {
            "txid" : "fe951be31a7e6528488cb0a3e8b956b3a3fc3f572a473a5f5d883adb3c6e504b",
            "vout" : 1,
            "scriptSig" : {
                "asm" : "304402205e907058f2fd0b38a3e275e082b11cc6b644a3b761f0c1b8d69abbfb792ece5302201f10690ba7c1930d13a85837a265ba9274e5cc989eee667286fa5333a43e5e6201 03fc281847a249312fadfa20fd4e3dce543bf90b265e17597687e1c54d1920b967",
                "hex" : "47304402205e907058f2fd0b38a3e275e082b11cc6b644a3b761f0c1b8d69abbfb792ece5302201f10690ba7c1930d13a85837a265ba9274e5cc989eee667286fa5333a43e5e62012103fc281847a249312fadfa20fd4e3dce543bf90b265e17597687e1c54d1920b967"
            },
            "sequence" : 4294967295
        }
    ],
    "vout" : [
        {
            "value" : 0.16427239,
            "n" : 0,
            "scriptPubKey" : {
                "asm" : "OP_DUP OP_HASH160 5672a3afe117c9ddcc1d32ee927c6bd123378916 OP_EQUALVERIFY OP_CHECKSIG",
                "hex" : "76a9145672a3afe117c9ddcc1d32ee927c6bd12337891688ac",
                "reqSigs" : 1,
                "type" : "pubkeyhash",
                "addresses" : [
                    "18t6SnQ8s6QcgcMcmfHB4vQoLDDPwpEiUg"
                ]
            }
        },
        {
            "value" : 0.14684743,
            "n" : 1,
            "scriptPubKey" : {
                "asm" : "OP_DUP OP_HASH160 c892a60121a31cfbf69db0ebac641145c715d9b2 OP_EQUALVERIFY OP_CHECKSIG",
                "hex" : "76a914c892a60121a31cfbf69db0ebac641145c715d9b288ac",
                "reqSigs" : 1,
                "type" : "pubkeyhash",
                "addresses" : [
                    "1KHXpgQLeLgMTZmP5JVss5XX55UUTFunPP"
                ]
            }
        }
    ],
    "blockhash" : "00000000000000012699f7241050c39a221cba672bcb33f041102bc40dd213ed",
    "confirmations" : 8708,
    "time" : 1388063787,
    "blocktime" : 1388063787
}
