{
    "hex" : "0100000003de5b3858e69b8960a3bcd280622d9ba4dbfc644368afc3ceca33806260a95e09010000006c493046022100e27d298fbe82569189428dcbc49f9556cea1b14d863462aeb4fbd95f98c883c002210088bf17d1882523d54e0ffd2deeb1b381e0bd92a8751f8e582f037af4870d43fb0121034a19526726a15c654bafc8b4610f9e89f251c92fb379c636b32611824bd2e228ffffffff60cded8f759264e3d0629116d1a7d72dd7ababa6f76270bcf28857c7c6fe78f06d0500006c493046022100b24d8550d7e34b001b2f5910b636f7ef2481c5fdbf1b34d781540db4bbc28b2e022100b2a78e4b6c18ed15cf3723610787ffc0271dbf99e2a9dd014f55be6b654f06f1012102b81922ef0c8eef3094458d446524d545e5aec07500ec463d78b31a3be6a18556ffffffff71b58171f4fc2d35c4185072458b135cbae4732aeb659631fa0d842bd9df31aa010000006b483045022100a6543c08c056c26b2f6598e68eee3c2a84b3e6b2600445b0ccafab21734446cd02200f7773e861d3e02380f55b62050c067b57457db8e69fb773e98a304bb7166f2b0121034a19526726a15c654bafc8b4610f9e89f251c92fb379c636b32611824bd2e228ffffffff024670d001000000001976a91466be94a6c10cdfcbf053ced58743ff8e12fbcfe788ac93022802000000001976a914c892a60121a31cfbf69db0ebac641145c715d9b288ac00000000",
    "txid" : "d2b64a6d2e3860bfc6f37774bad6e7c4bfbc1ea63716de4bc146188f8e63e61e",
    "version" : 1,
    "locktime" : 0,
    "vin" : [
        {
            "txid" : "095ea960628033cacec3af684364fcdba49b2d6280d2bca360899be658385bde",
            "vout" : 1,
            "scriptSig" : {
                "asm" : "3046022100e27d298fbe82569189428dcbc49f9556cea1b14d863462aeb4fbd95f98c883c002210088bf17d1882523d54e0ffd2deeb1b381e0bd92a8751f8e582f037af4870d43fb01 034a19526726a15c654bafc8b4610f9e89f251c92fb379c636b32611824bd2e228",
                "hex" : "493046022100e27d298fbe82569189428dcbc49f9556cea1b14d863462aeb4fbd95f98c883c002210088bf17d1882523d54e0ffd2deeb1b381e0bd92a8751f8e582f037af4870d43fb0121034a19526726a15c654bafc8b4610f9e89f251c92fb379c636b32611824bd2e228"
            },
            "sequence" : 4294967295
        },
        {
            "txid" : "f078fec6c75788f2bc7062f7a6ababd72dd7a7d1169162d0e36492758fedcd60",
            "vout" : 1389,
            "scriptSig" : {
                "asm" : "3046022100b24d8550d7e34b001b2f5910b636f7ef2481c5fdbf1b34d781540db4bbc28b2e022100b2a78e4b6c18ed15cf3723610787ffc0271dbf99e2a9dd014f55be6b654f06f101 02b81922ef0c8eef3094458d446524d545e5aec07500ec463d78b31a3be6a18556",
                "hex" : "493046022100b24d8550d7e34b001b2f5910b636f7ef2481c5fdbf1b34d781540db4bbc28b2e022100b2a78e4b6c18ed15cf3723610787ffc0271dbf99e2a9dd014f55be6b654f06f1012102b81922ef0c8eef3094458d446524d545e5aec07500ec463d78b31a3be6a18556"
            },
            "sequence" : 4294967295
        },
        {
            "txid" : "aa31dfd92b840dfa319665eb2a73e4ba5c138b45725018c4352dfcf47181b571",
            "vout" : 1,
            "scriptSig" : {
                "asm" : "3045022100a6543c08c056c26b2f6598e68eee3c2a84b3e6b2600445b0ccafab21734446cd02200f7773e861d3e02380f55b62050c067b57457db8e69fb773e98a304bb7166f2b01 034a19526726a15c654bafc8b4610f9e89f251c92fb379c636b32611824bd2e228",
                "hex" : "483045022100a6543c08c056c26b2f6598e68eee3c2a84b3e6b2600445b0ccafab21734446cd02200f7773e861d3e02380f55b62050c067b57457db8e69fb773e98a304bb7166f2b0121034a19526726a15c654bafc8b4610f9e89f251c92fb379c636b32611824bd2e228"
            },
            "sequence" : 4294967295
        }
    ],
    "vout" : [
        {
            "value" : 0.30437446,
            "n" : 0,
            "scriptPubKey" : {
                "asm" : "OP_DUP OP_HASH160 66be94a6c10cdfcbf053ced58743ff8e12fbcfe7 OP_EQUALVERIFY OP_CHECKSIG",
                "hex" : "76a91466be94a6c10cdfcbf053ced58743ff8e12fbcfe788ac",
                "reqSigs" : 1,
                "type" : "pubkeyhash",
                "addresses" : [
                    "1ANGELwQwWxMmbdaSWhWLqBEtPTkWb8uDc"
                ]
            }
        },
        {
            "value" : 0.36176531,
            "n" : 1,
            "scriptPubKey" : {
                "asm" : "OP_DUP OP_HASH160 c892a60121a31cfbf69db0ebac641145c715d9b2 OP_EQUALVERIFY OP_CHECKSIG",
                "hex" : "76a914c892a60121a31cfbf69db0ebac641145c715d9b288ac",
                "reqSigs" : 1,
                "type" : "pubkeyhash",
                "addresses" : [
                    "1KHXpgQLeLgMTZmP5JVss5XX55UUTFunPP"
                ]
            }
        }
    ],
    "blockhash" : "000000000000000141b41a8d3b4d10341d7d8c42e8645e38e12a9f6977edbcbd",
    "confirmations" : 8015,
    "time" : 1388365272,
    "blocktime" : 1388365272
}
