{
    "hex" : "0100000001a446f6b027601cb242733c5d4ffdacb04ed1fcd0a196e7d0fcfc97cc4ee55643010000008c493046022100942d29a3bd16ba89deec31f929a7691ecdb2ccf4e0ae979231305e4c9cafc1ef022100d10905a9d0de8847ca2023d3d946adcdbb313fcac31decf8e5dc7230b701d5c701410415b82f8ee0f3cb4ff8f2dcd2c70b59a87afe4434091c3c0e0af6b88c8e7b550cc9817a835924e8660cc7fa3e906425ccf9ffd6db5afd3616471bd366f4dfad46ffffffff0280969800000000001976a91466be94a6c10cdfcbf053ced58743ff8e12fbcfe788aceff66800000000001976a914b66f6c61dbec6295ce758e1add1914f65985178a88ac00000000",
    "txid" : "dbc8afb1b23eed6b777aa08f35e593e199b52d9fd8eeaa1ca19d661d8649b1ca",
    "version" : 1,
    "locktime" : 0,
    "vin" : [
        {
            "txid" : "4356e54ecc97fcfcd0e796a1d0fcd14eb0acfd4f5d3c7342b21c6027b0f646a4",
            "vout" : 1,
            "scriptSig" : {
                "asm" : "3046022100942d29a3bd16ba89deec31f929a7691ecdb2ccf4e0ae979231305e4c9cafc1ef022100d10905a9d0de8847ca2023d3d946adcdbb313fcac31decf8e5dc7230b701d5c701 0415b82f8ee0f3cb4ff8f2dcd2c70b59a87afe4434091c3c0e0af6b88c8e7b550cc9817a835924e8660cc7fa3e906425ccf9ffd6db5afd3616471bd366f4dfad46",
                "hex" : "493046022100942d29a3bd16ba89deec31f929a7691ecdb2ccf4e0ae979231305e4c9cafc1ef022100d10905a9d0de8847ca2023d3d946adcdbb313fcac31decf8e5dc7230b701d5c701410415b82f8ee0f3cb4ff8f2dcd2c70b59a87afe4434091c3c0e0af6b88c8e7b550cc9817a835924e8660cc7fa3e906425ccf9ffd6db5afd3616471bd366f4dfad46"
            },
            "sequence" : 4294967295
        }
    ],
    "vout" : [
        {
            "value" : 0.10000000,
            "n" : 0,
            "scriptPubKey" : {
                "asm" : "OP_DUP OP_HASH160 66be94a6c10cdfcbf053ced58743ff8e12fbcfe7 OP_EQUALVERIFY OP_CHECKSIG",
                "hex" : "76a91466be94a6c10cdfcbf053ced58743ff8e12fbcfe788ac",
                "reqSigs" : 1,
                "type" : "pubkeyhash",
                "addresses" : [
                    "1ANGELwQwWxMmbdaSWhWLqBEtPTkWb8uDc"
                ]
            }
        },
        {
            "value" : 0.06878959,
            "n" : 1,
            "scriptPubKey" : {
                "asm" : "OP_DUP OP_HASH160 b66f6c61dbec6295ce758e1add1914f65985178a OP_EQUALVERIFY OP_CHECKSIG",
                "hex" : "76a914b66f6c61dbec6295ce758e1add1914f65985178a88ac",
                "reqSigs" : 1,
                "type" : "pubkeyhash",
                "addresses" : [
                    "1HddTkBSaxVnRL2XPpgFMVChj8BSWWC5mN"
                ]
            }
        }
    ],
    "blockhash" : "0000000000000000228387f430db9262da4bae4d9122f90c2f4873c0f937b6f9",
    "confirmations" : 4181,
    "time" : 1390259830,
    "blocktime" : 1390259830
}
